{
  "address": "0xb4856f47D8C91852527FecfDA6E5ef6A2E1b67Ee",
  "abi": [
    {
      "inputs": [
        {
          "internalType": "address",
          "name": "_usdc",
          "type": "address"
        }
      ],
      "stateMutability": "nonpayable",
      "type": "constructor"
    },
    {
      "inputs": [
        {
          "internalType": "string",
          "name": "Name",
          "type": "string"
        },
        {
          "internalType": "string",
          "name": "Symbol",
          "type": "string"
        }
      ],
      "name": "CreateToken",
      "outputs": [
        {
          "internalType": "address[]",
          "name": "",
          "type": "address[]"
        }
      ],
      "stateMutability": "nonpayable",
      "type": "function"
    },
    {
      "inputs": [],
      "name": "USDC_ADDRESS",
      "outputs": [
        {
          "internalType": "address",
          "name": "",
          "type": "address"
        }
      ],
      "stateMutability": "view",
      "type": "function"
    },
    {
      "inputs": [
        {
          "internalType": "uint256",
          "name": "",
          "type": "uint256"
        }
      ],
      "name": "deployed_tokens",
      "outputs": [
        {
          "internalType": "address",
          "name": "",
          "type": "address"
        }
      ],
      "stateMutability": "view",
      "type": "function"
    }
  ],
  "transactionHash": "0xbc27c963d574c3d530d84f30e7cec101269d9510b5abfe87fdc24c5652e5ad77",
  "args": [
    "0xd966BCCC5F12399878161db419CF67f36Bda663A"
  ],
  "numDeployments": 2,
  "solcInputHash": "7937ac3b1fff90366f94442d1c748319",
  "bytecode": "0x60a0604052348015600f57600080fd5b50604051611dd2380380611dd2833981016040819052602c91603c565b6001600160a01b0316608052606a565b600060208284031215604d57600080fd5b81516001600160a01b0381168114606357600080fd5b9392505050565b608051611d4761008b60003960008181609f01526101500152611d476000f3fe608060405234801561001057600080fd5b50600436106100415760003560e01c80631053aff214610046578063870118cb1461006f578063bb09d9b71461009a575b600080fd5b610059610054366004610304565b6100c1565b604051610066919061036d565b60405180910390f35b61008261007d3660046103b9565b61021b565b6040516001600160a01b039091168152602001610066565b6100827f000000000000000000000000000000000000000000000000000000000000000081565b606060003384846040516100d490610245565b6100e093929190610418565b604051809103906000f0801580156100fc573d6000803e3d6000fd5b50600080546001810182558180527f290decd9548b62a8d60345a988386fc84ba6bc95484008f6362f93160ef3e5630180546001600160a01b0319166001600160a01b0384161790556040519192509082907f00000000000000000000000000000000000000000000000000000000000000009061017990610252565b6001600160a01b03928316815291166020820152604001604051809103906000f0801580156101ac573d6000803e3d6000fd5b509050606082816000815181106101c5576101c5610458565b60200260200101906001600160a01b031690816001600160a01b03168152505081816001815181106101f9576101f9610458565b6001600160a01b03909216602092830291909101909101529250505092915050565b6000818154811061022b57600080fd5b6000918252602090912001546001600160a01b0316905081565b610bb98061046f83390190565b610cea8061102883390190565b634e487b7160e01b600052604160045260246000fd5b600082601f83011261028657600080fd5b813567ffffffffffffffff8111156102a0576102a061025f565b604051601f8201601f19908116603f0116810167ffffffffffffffff811182821017156102cf576102cf61025f565b6040528181528382016020018510156102e757600080fd5b816020850160208301376000918101602001919091529392505050565b6000806040838503121561031757600080fd5b823567ffffffffffffffff81111561032e57600080fd5b61033a85828601610275565b925050602083013567ffffffffffffffff81111561035757600080fd5b61036385828601610275565b9150509250929050565b602080825282518282018190526000918401906040840190835b818110156103ae5783516001600160a01b0316835260209384019390920191600101610387565b509095945050505050565b6000602082840312156103cb57600080fd5b5035919050565b6000815180845260005b818110156103f8576020818501810151868301820152016103dc565b506000602082860101526020601f19601f83011685010191505092915050565b6001600160a01b038416815260606020820181905260009061043c908301856103d2565b828103604084015261044e81856103d2565b9695505050505050565b634e487b7160e01b600052603260045260246000fdfe608060405234801561001057600080fd5b50604051610bb9380380610bb983398101604081905261002f91610293565b8181600361003d83826103a4565b50600461004a82826103a4565b505050610069836b033b2e3c9fd0803ce800000061007160201b60201c565b505050610489565b6001600160a01b0382166100a05760405163ec442f0560e01b8152600060048201526024015b60405180910390fd5b6100ac600083836100b0565b5050565b6001600160a01b0383166100db5780600260008282546100d09190610462565b9091555061014d9050565b6001600160a01b0383166000908152602081905260409020548181101561012e5760405163391434e360e21b81526001600160a01b03851660048201526024810182905260448101839052606401610097565b6001600160a01b03841660009081526020819052604090209082900390555b6001600160a01b03821661016957600280548290039055610188565b6001600160a01b03821660009081526020819052604090208054820190555b816001600160a01b0316836001600160a01b03167fddf252ad1be2c89b69c2b068fc378daa952ba7f163c4a11628f55a4df523b3ef836040516101cd91815260200190565b60405180910390a3505050565b634e487b7160e01b600052604160045260246000fd5b600082601f83011261020157600080fd5b81516001600160401b0381111561021a5761021a6101da565b604051601f8201601f19908116603f011681016001600160401b0381118282101715610248576102486101da565b60405281815283820160200185101561026057600080fd5b60005b8281101561027f57602081860181015183830182015201610263565b506000918101602001919091529392505050565b6000806000606084860312156102a857600080fd5b83516001600160a01b03811681146102bf57600080fd5b60208501519093506001600160401b038111156102db57600080fd5b6102e7868287016101f0565b604086015190935090506001600160401b0381111561030557600080fd5b610311868287016101f0565b9150509250925092565b600181811c9082168061032f57607f821691505b60208210810361034f57634e487b7160e01b600052602260045260246000fd5b50919050565b601f82111561039f57806000526020600020601f840160051c8101602085101561037c5750805b601f840160051c820191505b8181101561039c5760008155600101610388565b50505b505050565b81516001600160401b038111156103bd576103bd6101da565b6103d1816103cb845461031b565b84610355565b6020601f82116001811461040557600083156103ed5750848201515b600019600385901b1c1916600184901b17845561039c565b600084815260208120601f198516915b828110156104355787850151825560209485019460019092019101610415565b50848210156104535786840151600019600387901b60f8161c191681555b50505050600190811b01905550565b8082018082111561048357634e487b7160e01b600052601160045260246000fd5b92915050565b610721806104986000396000f3fe608060405234801561001057600080fd5b50600436106100935760003560e01c8063313ce56711610066578063313ce567146100fe57806370a082311461010d57806395d89b4114610136578063a9059cbb1461013e578063dd62ed3e1461015157600080fd5b806306fdde0314610098578063095ea7b3146100b657806318160ddd146100d957806323b872dd146100eb575b600080fd5b6100a061018a565b6040516100ad919061056a565b60405180910390f35b6100c96100c43660046105d4565b61021c565b60405190151581526020016100ad565b6002545b6040519081526020016100ad565b6100c96100f93660046105fe565b610236565b604051601281526020016100ad565b6100dd61011b36600461063b565b6001600160a01b031660009081526020819052604090205490565b6100a061025a565b6100c961014c3660046105d4565b610269565b6100dd61015f36600461065d565b6001600160a01b03918216600090815260016020908152604080832093909416825291909152205490565b60606003805461019990610690565b80601f01602080910402602001604051908101604052809291908181526020018280546101c590610690565b80156102125780601f106101e757610100808354040283529160200191610212565b820191906000526020600020905b8154815290600101906020018083116101f557829003601f168201915b5050505050905090565b60003361022a818585610277565b60019150505b92915050565b600033610244858285610289565b61024f85858561030c565b506001949350505050565b60606004805461019990610690565b60003361022a81858561030c565b610284838383600161036b565b505050565b6001600160a01b03838116600090815260016020908152604080832093861683529290522054600019811461030657818110156102f757604051637dc7a0d960e11b81526001600160a01b038416600482015260248101829052604481018390526064015b60405180910390fd5b6103068484848403600061036b565b50505050565b6001600160a01b03831661033657604051634b637e8f60e11b8152600060048201526024016102ee565b6001600160a01b0382166103605760405163ec442f0560e01b8152600060048201526024016102ee565b610284838383610440565b6001600160a01b0384166103955760405163e602df0560e01b8152600060048201526024016102ee565b6001600160a01b0383166103bf57604051634a1406b160e11b8152600060048201526024016102ee565b6001600160a01b038085166000908152600160209081526040808320938716835292905220829055801561030657826001600160a01b0316846001600160a01b03167f8c5be1e5ebec7d5bd14f71427d1e84f3dd0314c0f7b2291e5b200ac8c7c3b9258460405161043291815260200190565b60405180910390a350505050565b6001600160a01b03831661046b57806002600082825461046091906106ca565b909155506104dd9050565b6001600160a01b038316600090815260208190526040902054818110156104be5760405163391434e360e21b81526001600160a01b038516600482015260248101829052604481018390526064016102ee565b6001600160a01b03841660009081526020819052604090209082900390555b6001600160a01b0382166104f957600280548290039055610518565b6001600160a01b03821660009081526020819052604090208054820190555b816001600160a01b0316836001600160a01b03167fddf252ad1be2c89b69c2b068fc378daa952ba7f163c4a11628f55a4df523b3ef8360405161055d91815260200190565b60405180910390a3505050565b602081526000825180602084015260005b81811015610598576020818601810151604086840101520161057b565b506000604082850101526040601f19601f83011684010191505092915050565b80356001600160a01b03811681146105cf57600080fd5b919050565b600080604083850312156105e757600080fd5b6105f0836105b8565b946020939093013593505050565b60008060006060848603121561061357600080fd5b61061c846105b8565b925061062a602085016105b8565b929592945050506040919091013590565b60006020828403121561064d57600080fd5b610656826105b8565b9392505050565b6000806040838503121561067057600080fd5b610679836105b8565b9150610687602084016105b8565b90509250929050565b600181811c908216806106a457607f821691505b6020821081036106c457634e487b7160e01b600052602260045260246000fd5b50919050565b8082018082111561023057634e487b7160e01b600052601160045260246000fdfea2646970667358221220519a07842a98ea62931c376561601339049093bd125918538aa8475f21cb270e64736f6c634300081a003360c0604052348015600f57600080fd5b50604051610cea380380610cea833981016040819052602c91605d565b6001600160a01b039182166080521660a052608b565b80516001600160a01b0381168114605857600080fd5b919050565b60008060408385031215606f57600080fd5b6076836042565b91506082602084016042565b90509250929050565b60805160a051610be061010a60003960008181610178015281816102c6015281816103ff015281816105230152818161069d0152818161075301526107c1015260008181609d0152818161022d015281816103670152818161048d01528181610662015281816107110152818161077401526107a00152610be06000f3fe608060405234801561001057600080fd5b50600436106100935760003560e01c806370a082311161006657806370a08231146101055780639c8f9f23146101255780639cd441da1461014d578063d004f0f714610160578063d21220a71461017357600080fd5b80630dfe16811461009857806318160ddd146100dc578063443cb4bc146100f35780635a76f25e146100fc575b600080fd5b6100bf7f000000000000000000000000000000000000000000000000000000000000000081565b6040516001600160a01b0390911681526020015b60405180910390f35b6100e560025481565b6040519081526020016100d3565b6100e560005481565b6100e560015481565b6100e5610113366004610a6d565b60036020526000908152604090205481565b610138610133366004610a8f565b61019a565b604080519283526020830191909152016100d3565b6100e561015b366004610aa8565b610342565b6100e561016e366004610aca565b61065e565b6100bf7f000000000000000000000000000000000000000000000000000000000000000081565b600080600254836000546101ae9190610b0a565b6101b89190610b27565b9150600254836001546101cb9190610b0a565b6101d59190610b27565b90506101e133846109c6565b61020b826000546101f29190610b49565b826001546102009190610b49565b600091909155600155565b81156102a45760405163a9059cbb60e01b8152336004820152602481018390527f00000000000000000000000000000000000000000000000000000000000000006001600160a01b03169063a9059cbb906044016020604051808303816000875af115801561027e573d6000803e3d6000fd5b505050506040513d601f19601f820116820180604052508101906102a29190610b5c565b505b801561033d5760405163a9059cbb60e01b8152336004820152602481018290527f00000000000000000000000000000000000000000000000000000000000000006001600160a01b03169063a9059cbb906044016020604051808303816000875af1158015610317573d6000803e3d6000fd5b505050506040513d601f19601f8201168201806040525081019061033b9190610b5c565b505b915091565b6040516323b872dd60e01b8152336004820152306024820152604481018390526000907f00000000000000000000000000000000000000000000000000000000000000006001600160a01b0316906323b872dd906064016020604051808303816000875af11580156103b8573d6000803e3d6000fd5b505050506040513d601f19601f820116820180604052508101906103dc9190610b5c565b506040516323b872dd60e01b8152336004820152306024820152604481018390527f00000000000000000000000000000000000000000000000000000000000000006001600160a01b0316906323b872dd906064016020604051808303816000875af1158015610450573d6000803e3d6000fd5b505050506040513d601f19601f820116820180604052508101906104749190610b5c565b506040516370a0823160e01b81523060048201526000907f00000000000000000000000000000000000000000000000000000000000000006001600160a01b0316906370a0823190602401602060405180830381865afa1580156104dc573d6000803e3d6000fd5b505050506040513d601f19601f820116820180604052508101906105009190610b7e565b6040516370a0823160e01b81523060048201529091506000906001600160a01b037f000000000000000000000000000000000000000000000000000000000000000016906370a0823190602401602060405180830381865afa15801561056a573d6000803e3d6000fd5b505050506040513d601f19601f8201168201806040525081019061058e9190610b7e565b9050600080548361059f9190610b49565b90506000600154836105b19190610b49565b600254909150156105f4576001546000546105cc9190610b97565b6002546105d98385610b97565b6105e39190610b0a565b6105ed9190610b27565b9450610601565b6105fe8183610b97565b94505b600085116106435760405162461bcd60e51b815260206004820152600a6024820152690736861726573203d20360b41b60448201526064015b60405180910390fd5b61064d3386610a10565b505060009190915560015592915050565b60007f00000000000000000000000000000000000000000000000000000000000000006001600160a01b0316836001600160a01b031614806106d157507f00000000000000000000000000000000000000000000000000000000000000006001600160a01b0316836001600160a01b0316145b61070d5760405162461bcd60e51b815260206004820152600d60248201526c34b73b30b634b2103a37b5b2b760991b604482015260640161063a565b60007f00000000000000000000000000000000000000000000000000000000000000006001600160a01b0316846001600160a01b03161490506000806000808461079e577f00000000000000000000000000000000000000000000000000000000000000007f00000000000000000000000000000000000000000000000000000000000000006001546000546107e7565b7f00000000000000000000000000000000000000000000000000000000000000007f00000000000000000000000000000000000000000000000000000000000000006000546001545b6040516323b872dd60e01b8152336004820152306024820152604481018c9052939750919550935091506001600160a01b038516906323b872dd906064016020604051808303816000875af1158015610844573d6000803e3d6000fd5b505050506040513d601f19601f820116820180604052508101906108689190610b5c565b506040516370a0823160e01b815230600482015260009083906001600160a01b038716906370a0823190602401602060405180830381865afa1580156108b2573d6000803e3d6000fd5b505050506040513d601f19601f820116820180604052508101906108d69190610b7e565b6108e09190610b49565b90506103e86108f1826103e5610b0a565b6108fb9190610b27565b96506000808761091e5761090f8985610b49565b6109198487610b97565b610932565b6109288386610b97565b6109328a86610b49565b915091506109468282600091909155600155565b60405163a9059cbb60e01b8152336004820152602481018a90526001600160a01b0387169063a9059cbb906044016020604051808303816000875af1158015610993573d6000803e3d6000fd5b505050506040513d601f19601f820116820180604052508101906109b79190610b5c565b50505050505050505092915050565b6001600160a01b038216600090815260036020526040812080548392906109ee908490610b49565b925050819055508060026000828254610a079190610b49565b90915550505050565b6001600160a01b03821660009081526003602052604081208054839290610a38908490610b97565b925050819055508060026000828254610a079190610b97565b80356001600160a01b0381168114610a6857600080fd5b919050565b600060208284031215610a7f57600080fd5b610a8882610a51565b9392505050565b600060208284031215610aa157600080fd5b5035919050565b60008060408385031215610abb57600080fd5b50508035926020909101359150565b60008060408385031215610add57600080fd5b610ae683610a51565b946020939093013593505050565b634e487b7160e01b600052601160045260246000fd5b8082028115828204841417610b2157610b21610af4565b92915050565b600082610b4457634e487b7160e01b600052601260045260246000fd5b500490565b81810381811115610b2157610b21610af4565b600060208284031215610b6e57600080fd5b81518015158114610a8857600080fd5b600060208284031215610b9057600080fd5b5051919050565b80820180821115610b2157610b21610af456fea26469706673582212207da51119cf92eb4ededf0743ef3f6a26e19e986947e9830d1ea35ce48d745c2064736f6c634300081a0033a2646970667358221220962a734ceb5cf8f1c28841a7e34161bbd5976b52ff21668834374b100f23d25c64736f6c634300081a0033",
  "devdoc": {
    "kind": "dev",
    "methods": {},
    "version": 1
  },
  "userdoc": {
    "kind": "user",
    "methods": {},
    "version": 1
  },
  "storageLayout": {
    "storage": [
      {
        "astId": 1306,
        "contract": "contracts/TokenMinter.sol:Factory",
        "label": "deployed_tokens",
        "offset": 0,
        "slot": "0",
        "type": "t_array(t_address)dyn_storage"
      }
    ],
    "types": {
      "t_address": {
        "encoding": "inplace",
        "label": "address",
        "numberOfBytes": "20"
      },
      "t_array(t_address)dyn_storage": {
        "base": "t_address",
        "encoding": "dynamic_array",
        "label": "address[]",
        "numberOfBytes": "32"
      }
    }
  }
}